:100000000C945D010C9485010C9485010C94850180
:100010000C9485010C9485010C9485010C94850148
:100020000C9485010C9485010C9485010C94850138
:100030000C9485010C9451040C9485010C94850159
:100040000C94AF030C9485010C941F040C94F903D9
:100050000C9485010C9485010C9485010C94850108
:100060000C9485010C948501000000000000410003
:100070004100410083008300C400060106014701DE
:100080008901CA010C024D02D00212035303D703A7
:1000900018049B04DD046005E3056606E9066C07A9
:1000A000EF077208F508BA093D0AC00A850B490C2A
:1000B000CC0C910D550E1A0F9D0F621068112C1269
:1000C000F112B6137A14801545164B17101816192D
:1000D0001C1AE11AE71BED1CF31DF91EFF1F062178
:1000E0000C221223592460256626AD27B428FB294B
:1000F000012B492C912D972EDF2F26316E32B633EE
:10010000FD3445368D37D4381C3A643BAB3CF33D67
:100110007C3FC4400C429543DC446646AD473749BA
:100120007E4A074C914DD84E6150EB513253BC542E
:100130004556CE575759E05A285CB15D3B5FC460C5
:100140004D62D6635F65E9667268FB69846B0D6D0D
:10015000D86E6170EB717473FD7486760F7899793F
:10016000637BED7C767EFF7F888111839B8465862F
:10017000EF877889018B8A8C138E9D8F2691F1925F
:100180007A9403968C9715999F9A289CB19D3A9FD3
:10019000C3A04DA2D6A31EA5A7A630A8B9A942AB5D
:1001A000CCAC13AE9DAF26B16DB2F7B380B5C7B678
:1001B00051B898B922BB69BCF2BD3ABF82C00BC22C
:1001C00053C39AC4E2C52AC771C8B9C901CB48CC88
:1001D00090CDD8CE1FD067D16DD2B5D3FDD403D684
:1001E0004AD751D898D99EDAA5DBECDCF2DDF8DEEF
:1001F000FFDF05E10BE211E317E41DE5E2E5E8E6C8
:10020000EEE7B3E8B9E97EEA84EB48EC0DEDD2ED18
:1002100096EE9CEF61F0E4F0A9F16DF232F3B5F3E4
:1002200079F43EF5C1F544F609F78CF70FF892F82A
:1002300015F998F91BFA9EFA21FB63FBE6FB27FCF4
:10024000ABFCECFC2EFDB1FDF2FD34FE75FEB7FEFD
:10025000F8FEF8FE3AFF7BFF7BFFBDFFBDFFBDFF51
:10026000FFFFFFFFFFFFFFFF00000000240027004B
:100270002A0000000000250028002B0004040404CC
:100280000404040402020202020203030303030340
:10029000010204081020408001020408102001021D
:1002A00004081020000000080002010000030407F9
:1002B0000000000000000000760511241FBECFEFF3
:1002C000D8E0DEBFCDBF11E0A0E0B1E0EEE5F2E1A5
:1002D00002C005900D92A831B107D9F721E0A8E13D
:1002E000B1E001C01D92AA3FB207E1F711E0CDE5F0
:1002F000D1E004C02197FE010E942209CC35D1072C
:10030000C9F70E94C8060C942D090C94000090E0D7
:10031000FC01EC55FD4F3491FC01E057FD4F249159
:10032000FC01E458FD4FE491EE2309F43BC0332374
:1003300039F1333091F038F43130A9F0323001F531
:1003400084B58F7D12C0373091F03830A1F0343051
:10035000B9F4809180008F7D03C0809180008F77F9
:10036000809380000DC084B58F7784BD09C08091D3
:10037000B0008F7703C08091B0008F7D8093B00074
:10038000F0E0EE0FFF1FEE58FD4FA591B4918FB72F
:10039000F894EC91611103C020952E2301C02E2BFF
:1003A0002C938FBF0895CF93DF9390E0FC01E0572B
:1003B000FD4F2491FC01E458FD4F8491882361F1A5
:1003C00090E0880F991FFC01E859FD4FC591D49129
:1003D000FC01EE58FD4FA591B491611109C09FB782
:1003E000F8948881209582238883EC912E230BC07A
:1003F000623061F49FB7F8943881822F809583230F
:100400008883EC912E2B2C939FBF06C08FB7F89456
:10041000E8812E2B28838FBFDF91CF910895CF9253
:10042000DF92EF92FF920F931F93CF93DF936C01B4
:100430007A018B01C0E0D0E0CE15DF0589F0D8014C
:100440006D918D01D601ED91FC910190F081E02D2F
:10045000C6010995892B11F47E0102C02196ECCFCB
:10046000C701DF91CF911F910F91FF90EF90DF9027
:10047000CF900895089580E090E00895FC01538D99
:10048000448D252F30E0842F90E0821B930B54176E
:1004900010F0CF96089501970895FC01918D828DFB
:1004A000981761F0828DDF01A80FB11D5D968C91C8
:1004B000928D9F5F9F73928F90E008958FEF9FEFD3
:1004C0000895FC01918D828D981731F0828DE80F8F
:1004D000F11D858D90E008958FEF9FEF0895FC0149
:1004E000918D228D892F90E0805C9F4F821B910916
:1004F0008F73992708958DE291E00E946F0221E0A9
:10050000892B09F420E0822F0895FC01848DDF01FE
:10051000A80FB11DA35ABF4F2C91848D90E0019676
:100520008F739927848FA689B7892C93A089B18965
:100530008C9180648C93938D848D981306C002886F
:10054000F389E02D80818F7D80830895EF92FF9263
:100550000F931F93CF93DF93EC0181E0888F9B8DE6
:100560008C8D981305C0E889F989808185FD24C0A8
:10057000F62E0B8D10E00F5F1F4F0F731127E02E2B
:100580008C8DE8120CC00FB607FCFACFE889F98908
:10059000808185FFF5CFCE010E948502F1CF8B8D42
:1005A000FE01E80FF11DE35AFF4FF0820B8FEA893D
:1005B000FB898081806207C0EE89FF896083E889BA
:1005C000F98980818064808381E090E0DF91CF9120
:1005D0001F910F91FF90EF900895CF93DF93EC015F
:1005E000888D8823C9F0EA89FB89808185FD05C053
:1005F000A889B9898C9186FD0FC00FB607FCF5CF8D
:10060000808185FFF2CFA889B9898C9185FFEDCFD4
:10061000CE010E948502E7CFDF91CF91089580E05F
:1006200090E0892B29F00E947B0281110C9400003C
:100630000895CF93DF931F92CDB7DEB76983E98129
:10064000F0E0EC55FD4FE491E23061F020F4E13050
:1006500069F447BD0BC0E73039F0E83039F4409316
:10066000B40004C048BD02C04093B3000F90DF91B6
:10067000CF9108951F93CF93DF93EC01162F61E084
:1006800089810E948701612F88810E94870160E033
:100690008981DF91CF911F910C948701AF92BF9216
:1006A000DF92EF92FF920F931F93CF93DF93EC01B2
:1006B000B62ED72E60E08A810E94870100E010E00C
:1006C000EE24E394F12C8C819D819701002E02C0D1
:1006D000220F331F0A94E2F78223932361E0892BD0
:1006E00009F460E0CE010E943A030F5F1F4F08300B
:1006F000110549F70B2D1D2D96E0D92EAA24A394A0
:10070000B12C89E0E82EF12CF801828593859501C2
:100710000E2C02C0220F331F0A94E2F78223932388
:1007200061E0892B09F460E0CE010E943A03F1E018
:10073000EF1AF10848F7DA9402501109D110E1CF0D
:1007400061E08A81DF91CF911F910F91FF90EF902F
:10075000DF90BF90AF900C9487010E9428091F92F0
:100760000F920FB60F9211242F933F938F939F9365
:10077000AF93BF938091290190912A01A0912B0101
:10078000B0912C013091280123E0230F2D3720F464
:100790000196A11DB11D05C026E8230F0296A11DDB
:1007A000B11D209328018093290190932A01A093E1
:1007B0002B01B0932C018091240190912501A091EF
:1007C0002601B09127010196A11DB11D809324013E
:1007D00090932501A0932601B0932701BF91AF917B
:1007E0009F918F913F912F910F900FBE0F901F906F
:1007F00018951F920F920FB60F9211242F933F93CB
:100800004F935F936F937F938F939F93AF93BF9318
:10081000EF93FF938DE291E00E948502FF91EF91AB
:10082000BF91AF919F918F917F916F915F914F9108
:100830003F912F910F900FBE0F901F9018951F9210
:100840000F920FB60F9211242F938F939F93EF93D4
:10085000FF93E0913D01F0913E018081E0914301E1
:10086000F091440182FD12C09081809146018F5F1A
:100870008F7320914701821751F0E0914601F0E01B
:10088000E35DFE4F958F8093460101C08081FF910B
:10089000EF919F918F912F910F900FBE0F901F900E
:1008A00018951F920F920FB60F9211244F925F92DC
:1008B0006F927F928F929F92AF92BF92CF92DF9270
:1008C000EF92FF920F931F932F933F934F935F935A
:1008D0006F937F938F939F93AF93BF93EF93FF9308
:1008E000CF93DF93CDB7DEB72997DEBFCDBF0091A1
:1008F000CA011091CB018FB7F89420912201309159
:10090000230130938500209384008FBFE091200164
:10091000F091210180819181A2818F839887A9879D
:100920000580F681E02D80819181A2818C839D8359
:10093000AE83E0911E01F0911F01EE0FFF1FE859F9
:10094000FF4F6591749180E090E00E94180820E0CC
:100950003FEF4FE757E40E9477072B013C014E0120
:1009600027E0820E911CCE0101965C01FE013496B7
:100970007F0163E0C62ECE0EF70161917F01F40185
:10098000D1904F0170E06D197109072E000C880B92
:10099000990B0E941A089B01AC01C301B2010E948D
:1009A000A6080E94E907D60EF501D1925F01CE108C
:1009B000E3CF6091D40149814095C8010E94190399
:1009C0006091D5014A814095C8010E941903609148
:1009D000D6014B814095C8010E94190389819A81F3
:1009E000AB8180931B0190931C01A0931D0180910A
:1009F0001E0190911F01019690931F0180931E018B
:100A00008F3F910509F008F44AC080916F008E7FF6
:100A100080936F00E0912001F09121018581968102
:100A20009093210180932001109280001092810008
:100A3000E0912001F091210123813481A8EEB3E0FF
:100A40000E941309BB27A92F982F872F8F3FFFE7FD
:100A50009F07A105B10538F4BC01660F771F80918F
:100A6000810082600BC022E0B695A7959795879587
:100A70002A95D1F7BC018091810083608093810029
:100A800060957095709323016093220110921F016D
:100A900010921E0180916F00816080936F002996F3
:100AA0000FB6F894DEBF0FBECDBFDF91CF91FF919F
:100AB000EF91BF91AF919F918F917F916F915F91D6
:100AC0004F913F912F911F910F91FF90EF90DF90E9
:100AD000CF90BF90AF909F908F907F906F905F90DE
:100AE0004F900F900FBE0F901F9018957F928F928E
:100AF0009F92AF92BF92CF92DF92EF92FF920F93AD
:100B00001F93CF93DF93CDB7DEB72C970FB6F89432
:100B1000DEBF0FBECDBF1092300110922F0188EEC4
:100B200093E0A0E0B0E08093310190933201A09374
:100B30003301B09334018AE091E090932E018093C9
:100B40002D0185EC90E090933A018093390184EC7B
:100B500090E090933C0180933B0180EC90E0909377
:100B60003E0180933D0181EC90E0909340018093A1
:100B70003F0182EC90E0909342018093410186EC2A
:100B800090E09093440180934301109246011092AB
:100B9000470110924801109249018091CC01909137
:100BA000CD019093CB018093CA011092DF01109286
:100BB000DE011092E00116E0E1EEF1E0DF01812FAD
:100BC0001D928A95E9F7E0E0F1E0A7EEB1E0812F10
:100BD00001900D928A95E1F781E08093ED0161E04B
:100BE00088E00E94D30188E08093DA0161E089E027
:100BF0000E94D30189E08093DB0161E08AE00E94DA
:100C0000D30161E08AE00E9487018AE08093DC01E1
:100C1000DE0111967D018CE0FD0111928A95E9F7C4
:100C2000BD018AED91E00E944E03B7018AED91E08B
:100C30000E944E038091DE019091DF01837099271D
:100C40009093DF018093DE0183E08093D40185E0FF
:100C50008093D5011093D60100E010E0F801EC522A
:100C6000FE4F808161E00E94D3010F5F1F4F033070
:100C70001105A1F78EECE82E81E0F82E00E010E0DF
:100C8000AA24AA94B12C6701D7018D919C914501AA
:100C9000881A990AF801EC52FE4F708061E0872DA6
:100CA0000E94D3018114910409F449C0BFEF8B164F
:100CB000910409F446C0E72DF0E0EC55FD4FE491B6
:100CC000E330F9F048F4E130B9F0E230A1F584B551
:100CD000806284BD88BC39C0E730E9F0E83019F1A2
:100CE000E43049F58091800080628093800090928A
:100CF0008B0080928A0029C084B5806884BD87BC3F
:100D000024C0809180008068809380009092890048
:100D1000809288001AC08091B00080688093B000F3
:100D20008092B30012C08091B00080628093B000C6
:100D30008092B4000AC0E0E88E16910414F460E0DA
:100D400001C061E0872D0E948701F2E0EF0EF11CE7
:100D5000D6018C91F801E952FE4F80830F5F1F4F3F
:100D60000330110509F08FCF2C960FB6F894DEBF33
:100D70000FBECDBFDF91CF911F910F91FF90EF90EC
:100D8000DF90CF90BF90AF909F908F907F9008950D
:100D9000789484B5826084BD84B5816084BD85B556
:100DA000826085BD85B5816085BD80916E00816062
:100DB00080936E0010928100809181008260809308
:100DC000810080918100816080938100809180000A
:100DD0008160809380008091B10084608093B10035
:100DE0008091B00081608093B00080917A0084602F
:100DF00080937A0080917A00826080937A0080915B
:100E00007A00816080937A0080917A008068809374
:100E10007A001092C10061E087E00E94D30161E096
:100E20008BE00E94D30161E08CE00E94D30161E07D
:100E30008DE00E94D30160E087E00E94870161E0BD
:100E400084E00E94D30160E08EE00E94D30160E064
:100E50008FE00E94D30160E080E10E94D30160E056
:100E600082E10E94D30160E082E10E94D30160E050
:100E700083E10E94D30160E082E00E94D301E0910F
:100E80003D01F0913E0182E08083E0913901F091D3
:100E90003A011082E0913B01F0913C018FEC80839C
:100EA00010924501E0914101F091420186E080837A
:100EB000E0913F01F0914001808180618083E09169
:100EC0003F01F0914001808188608083E0913F0183
:100ED000F0914001808180688083E0913F01F09132
:100EE000400180818F7D80830E940F03FDCF0E948F
:100EF0008B070C946C080E94650858F00E945E08ED
:100F000040F029F45F3F29F00C94550851110C94DE
:100F1000A0080C945B080E947D0868F39923B1F344
:100F2000552391F3951B550BBB27AA27621773070F
:100F3000840738F09F5F5F4F220F331F441FAA1FA3
:100F4000A9F335D00E2E3AF0E0E832D0915050405F
:100F5000E695001CCAF72BD0FE2F29D0660F771F0D
:100F6000881FBB1F261737074807AB07B0E809F0F3
:100F7000BB0B802DBF01FF2793585F4F3AF09E3F78
:100F8000510578F00C9455080C94A0085F3FE4F3E9
:100F9000983ED4F3869577956795B795F7959F5FBB
:100FA000C9F7880F911D9695879597F90895E1E007
:100FB000660F771F881FBB1F621773078407BA0766
:100FC00020F0621B730B840BBA0BEE1F88F7E095C1
:100FD00008950E94850888F09F5798F0B92F9927A7
:100FE000B751B0F0E1F0660F771F881F991F1AF014
:100FF000BA95C9F714C0B13091F00E949F08B1E0D2
:1010000008950C949F08672F782F8827B85F39F0D0
:10101000B93FCCF3869577956795B395D9F73EF4AC
:1010200090958095709561957F4F8F4F9F4F089554
:10103000E89409C097FB3EF4909580957095619572
:101040007F4F8F4F9F4F9923A9F0F92F96E9BB2728
:101050009395F695879577956795B795F111F8CFA4
:10106000FAF4BB0F11F460FF1BC06F5F7F4F8F4F0F
:101070009F4F16C0882311F096E911C0772321F005
:101080009EE8872F762F05C0662371F096E8862F9D
:1010900070E060E02AF09A95660F771F881FDAF7F4
:1010A000880F9695879597F9089597F99F6780E837
:1010B00070E060E008959FEF80EC089500240A94AA
:1010C0001616170618060906089500240A94121623
:1010D0001306140605060895092E0394000C11F456
:1010E000882352F0BB0F40F4BF2B11F460FF04C003
:1010F0006F5F7F4F8F4F9F4F089557FD9058440F5C
:10110000551F59F05F3F71F04795880F97FB991F66
:1011100061F09F3F79F08795089512161306140623
:10112000551FF2CF4695F1DF08C0161617061806B0
:10113000991FF1CF86957105610508940895E8948B
:10114000BB2766277727CB0197F908950E94B90836
:101150000C946C080E945E0838F00E94650820F02C
:10116000952311F00C9455080C945B0811240C94F1
:10117000A0080E947D0870F3959FC1F3950F50E081
:10118000551F629FF001729FBB27F00DB11D639F39
:10119000AA27F00DB11DAA1F649F6627B00DA11DDF
:1011A000661F829F2227B00DA11D621F739FB00D85
:1011B000A11D621F839FA00D611D221F749F3327F5
:1011C000A00D611D231F849F600D211D822F762F8E
:1011D0006A2F11249F5750409AF0F1F088234AF06B
:1011E000EE0FFF1FBB1F661F771F881F91505040D7
:1011F000A9F79E3F510580F00C9455080C94A00867
:101200005F3FE4F3983ED4F3869577956795B7955D
:10121000F795E7959F5FC1F7FE2B880F911D969577
:10122000879597F90895A29FB001B39FC001A39F2E
:10123000700D811D1124911DB29F700D811D11240F
:10124000911D0895EE0FFF1F0590F491E02D099474
:0E12500081E090E0F8940C942D09F894FFCF03
:10125E0063636363636300000000A6020F023E0235
:08126E00ED026F024D02610266
:00000001FF
